:100000005AEF66F0FFFFFFFF01C00EF900C00DF9C7
:10001000E9CFD0F5EACFD1F5E1CFD2F5E2CFD3F5F4
:100020009EAA1FD09E9AAECFCFF5AE50030A02E132
:10003000010E156E1550000A14E01504006E016AD9
:10004000000E015A160E0024E16E000E0120E26E31
:10005000CFC5E6FF152A070E155C03E3156A010EEE
:10006000206E9EA004D09E90CD6A010E216ED0C558
:10007000E9FFD1C5EAFFD2C5E1FFD3C5E2FF0EC952
:1000800001F00DC900F01100010E0A6E0A2EFED714
:1000900000000000120022C0E1FF23C0E2FFF80EC2
:1000A000E714006E09010C510010E76E120024C025
:1000B000E1FF25C0E2FF0CC9E7FF22C0E1FF23C03A
:1000C000E2FF016AE7BE012A0150000AFAE044ECAF
:1000D00000F0E79C44EC00F0E78C44EC00F01200E8
:1000E0000F0E09010A15006E00C000F9E00E0010A5
:1000F000006F060E0C6F4BEC00F000C90CF957ECCA
:1001000000F009C900F9050E09010C6F4BEC00F075
:1001100000C90CF957EC00F008C900F9040E0901F8
:100120000C6F4BEC00F000C90CF957EC00F007C95C
:1001300000F9030E09010C6F4BEC00F000C90CF93B
:1001400057EC00F0020E09010C6F4BEC00F00BC9EC
:100150000CF957EC00F0070E09010C6F4BEC00F0A6
:10016000200E0C6F57EC00F009010C6B4BEC00F00B
:100170001200120E2424E16E25C0E2FFFF0EE76E8E
:1001800044EC00F022C0E1FF23C0E2FFE7AEFED75F
:1001900044EC00F0E79A44EC00F024C0E1FF25C0F5
:1001A000E2FFE7CF00F944EC00F022C0E1FF23C0FA
:1001B000E2FFE78A44EC00F0120E2424E16E25C031
:1001C000E2FFE76A00C900F012000F0E09010A15EC
:1001D000006E00C000F9E00E0010006F060E0C6FFC
:1001E0004BEC00F000C90CF957EC00F009C900F91C
:1001F000050E09010C6F4BEC00F000C90CF957EC2F
:1002000000F008C900F9040E09010C6F4BEC00F076
:1002100000C90CF957EC00F007C900F9030E0901F9
:100220000C6F4BEC00F000C90CF957EC00F0020E1B
:1002300009010C6F4BEC00F00BC90CF957EC00F006
:10024000070E09010C6F4BEC00F0300E0C6F57ECF1
:1002500000F009010C6B4BEC00F012000001220EC3
:100260000C6E086A096A0A6A0B6A0C06D8B45BEF5E
:1002700001F0D8900B320A320932083203320232CE
:1002800001320032D8A035EF01F00C06D8B453EF9C
:1002900001F0045008260550092206500A22075092
:1002A0000B223AEF01F004500826055009220650AF
:1002B0000A2207500B22120001C907F902C908F9E6
:1002C00003C909F904C90AF9010E09010B6F70ECA1
:1002D00000F00801FC6BFD6BFD51010802E1FC51CF
:1002E000FF0816E3B9EC00F000C0FEF8000E0801AC
:1002F000FF6FFC5109010525E16E0801FD5109015F
:100300000621E26EFEC8E6FF0801FC4BFD2BE4D798
:10031000120001C907F902C908F903C909F904C99A
:100320000AF9010E09010B6FE5EC00F00801FC6B06
:10033000FD6BFD51010802E1FC51FF0811E3FC5186
:1003400009010525E96E0801FD5109010621EA6E42
:10035000EECF0CF957EC00F00801FC4BFD2BE9D770
:10036000120000010B6A0A6A096A00500402F4CF05
:1003700009F0F3CF08F001500502F4CF0BF0F3CFF2
:100380000AF000500502F3500926F4500A22E86AE8
:100390000B2201500402F3500926F4500A22E86AA5
:1003A0000B2208C000F009C001F00AC002F00BC027
:1003B00003F0120000010D6A03AEEAEF01F0001E27
:1003C000011E021E031E000E002A01220222032229
:1003D000810E0D2607AEF7EF01F0041E051E061E66
:1003E000071E000E042A0522062207220D2A2EECE3
:1003F00001F00DA00DEF02F0001E011E021E031EF3
:10040000081E091E0A1E0B1E000E002A01220222CF
:100410000322082209220A220B22120000010134C1
:10042000083609360450085E0550D8A0053C095E20
:10043000003601360F0E0C6E0134083609360450B2
:1004400000A02AEF02F0085E0550D8A0053C095E26
:100450002FEF02F008260550D8B0053C09260036DB
:1004600001360C2E1CEF02F000B03DEF02F00450FC
:1004700008260550D8B0053C0926000012000001EE
:100480000B840BAE4BEF02F0010E036E026A016AA1
:10049000006A0A360232FF0E120000010AAE029E06
:1004A000000E120000010B820BAE5DEF02F003683C
:1004B0000268016800680A360232FF0E120000016D
:1004C000026A016A006A086A036A000E1200F8C82C
:1004D000E1FFF9C8E2FFFAC8E6FFFBC8E6FF120039
:1004E000016AC7B4012A0150000A09E11F0EC514B0
:1004F000016E0150000A03E1010E006E1200006A55
:10050000120000010450085E0550D8A0053C095EA9
:100510000650D8A0063C0A5E0750D8A0073C0B5EE8
:100520000336070E0C6E0334083609360A360B36CE
:10053000045003A0ABEF02F0085E0550D8A0053CC4
:10054000095E0650D8A0063C0A5E0750D8A0073CBA
:100550000B5EB8EF02F008260550D8B0053C09261E
:100560000650D8B0063C0A260750D8B0073C0B26E8
:1005700003360C2E93EF02F00234083609360A36A1
:100580000B36045003A0D4EF02F0085E0550D8A04B
:10059000053C095E0650D8A0063C0A5E0750D8A06C
:1005A000073C0B5EE1EF02F008260550D8B0053C91
:1005B00009260650D8B0063C0A260750D8B0073C9A
:1005C0000B260236070E0C6E0234083609360A3640
:1005D0000B36045002A0FCEF02F0085E0550D8A0D4
:1005E000053C095E0650D8A0063C0A5E0750D8A01C
:1005F000073C0B5E09EF03F008260550D8B0053C18
:1006000009260650D8B0063C0A260750D8B0073C49
:100610000B2602360C2EE4EF02F0013408360936C0
:100620000A360B36045002A025EF03F0085E055091
:10063000D8A0053C095E0650D8A0063C0A5E0750CB
:10064000D8A0073C0B5E32EF03F008260550D8B067
:10065000053C09260650D8B0063C0A260750D8B0FB
:10066000073C0B260136070E0C6E0134083609369E
:100670000A360B36045001A04DEF03F0085E05501A
:10068000D8A0053C095E0650D8A0063C0A5E07507B
:10069000D8A0073C0B5E5AEF03F008260550D8B0EF
:1006A000053C09260650D8B0063C0A260750D8B0AB
:1006B000073C0B2601360C2E35EF03F000340836CC
:1006C00009360A360B36045001A076EF03F0085EB7
:1006D0000550D8A0053C095E0650D8A0063C0A5E2D
:1006E0000750D8A0073C0B5E83EF03F008260550A7
:1006F000D8B0053C09260650D8B0063C0A2607505B
:10070000D8B0073C0B260036070E0C6E00340836B6
:1007100009360A360B36045000A09EEF03F0085E3F
:100720000550D8A0053C095E0650D8A0063C0A5EDC
:100730000750D8A0073C0B5EABEF03F0082605502E
:10074000D8B0053C09260650D8B0063C0A2607500A
:10075000D8B0073C0B2600360C2E86EF03F000B015
:10076000C0EF03F0045008260550D8B0053C092618
:100770000650D8B0063C0A260750D8B0073C0B26D6
:10078000120000010B1E0A1E091E081E082AD8B4FA
:10079000092AD8B40A2AD8B40B2A120000010B6A1D
:1007A0000A6A096A086A0E6A033408360450085E49
:1007B0000550D8A0053C095E0650D8A0063C0A5E4C
:1007C0000750D8A0073C0B5EE86AD8A0010E0E5E69
:1007D0000336070E0C6E0334083609360A360B361C
:1007E0000E36045003A008EF04F0085E0550D8A0B0
:1007F000053C095E0650D8A0063C0A5E0750D8A00A
:10080000073C0B5EE86AD8A0010E0E5E19EF04F0FB
:1008100008260550D8B0053C09260650D8B0063C3D
:100820000A260750D8B0073C0B26E86AD8B0010E5C
:100830000E2603360C2EEBEF03F002340836093691
:100840000A360B360E36045003A03AEF04F0085E69
:100850000550D8A0053C095E0650D8A0063C0A5EAB
:100860000750D8A0073C0B5EE86AD8A0010E0E5EC8
:100870004BEF04F008260550D8B0053C0926065079
:10088000D8B0063C0A260750D8B0073C0B26E86AC9
:10089000D8B0010E0E260236070E0C6E0234083652
:1008A00009360A360B360E36045002A06BEF04F000
:1008B000085E0550D8A0053C095E0650D8A0063C4D
:1008C0000A5E0750D8A0073C0B5EE86AD8A0010E6C
:1008D0000E5E7CEF04F008260550D8B0053C0926D2
:1008E0000650D8B0063C0A260750D8B0073C0B2665
:1008F000E86AD8B0010E0E2602360C2E4EEF04F038
:100900000134083609360A360B360E36045002A07A
:100910009DEF04F0085E0550D8A0053C095E065026
:10092000D8A0063C0A5E0750D8A0073C0B5EE86AD8
:10093000D8A0010E0E5EAEEF04F008260550D8B028
:10094000053C09260650D8B0063C0A260750D8B008
:10095000073C0B26E86AD8B0010E0E260136070EBA
:100960000C6E0134083609360A360B360E36045042
:1009700001A0CEEF04F0085E0550D8A0053C095E4A
:100980000650D8A0063C0A5E0750D8A0073C0B5E74
:10099000E86AD8A0010E0E5EDFEF04F008260550CD
:1009A000D8B0053C09260650D8B0063C0A260750A8
:1009B000D8B0073C0B26E86AD8B0010E0E260136E7
:1009C0000C2EB1EF04F00034083609360A360B3627
:1009D0000E36045001A000EF05F0085E0550D8A0C7
:1009E000053C095E0650D8A0063C0A5E0750D8A018
:1009F000073C0B5EE86AD8A0010E0E5E11EF05F011
:100A000008260550D8B0053C09260650D8B0063C4B
:100A10000A260750D8B0073C0B26E86AD8B0010E6A
:100A20000E260036070E0C6E0034083609360A36DC
:100A30000B360E36045000A031EF05F0085E05506D
:100A4000D8A0053C095E0650D8A0063C0A5E0750B7
:100A5000D8A0073C0B5EE86AD8A0010E0E5E42EFFC
:100A600005F008260550D8B0053C09260650D8B038
:100A7000063C0A260750D8B0073C0B26E86AD8B0D7
:100A8000010E0E2600360C2E14EF05F000B057EFC5
:100A900005F0045008260550D8B0053C092606503C
:100AA000D8B0063C0A260750D8B0073C0B261200E7
:100AB0000801F86B266A276A040E286E000E296E5C
:100AC0002AC001F92BC002F92CC003F92DC004F98A
:100AD0002E0E0901056F000E066F5CEC01F0295027
:100AE00002012F1902E12E51281817E1286A296AFC
:100AF000264A272A26502A240901016F27502B2035
:100B0000026F000E2C20036F000E2D20046F2E0E9E
:100B1000056F000E066F5CEC01F02E0E2824E96EC6
:100B2000000E2920EA6EEECF02F00250000A14E116
:100B3000010E2824006E000E2920016E2E0E0024C6
:100B4000E96E000E0120EA6EEECF02F00250000ABC
:100B500003E1010E0801F86F020E2826000E29227B
:100B60000801F853BCE00801F86B020E285E000E85
:100B7000295A12002E0E2824E16E000E2920E26E62
:100B8000FF0EE66E010E2824006E000E2920016E75
:100B90002E0E0024E16E000E0120E26EFF0EE66EC6
:100BA00026502A240901016F27502B20026F000EC6
:100BB0002C20036F000E2D20046F2E0E056F000EEB
:100BC000066F89EC01F02650020130250901016F02
:100BD0002750020131210901026F000E020132216A
:100BE0000901036F000E020133210901046F2E0E6B
:100BF000056F000E066F89EC01F0120026C000F0B0
:100C000027C001F036C204F037C205F0B1EC01F0A4
:100C100028C002F029C003F003320232039E0250C2
:100C200000240201346F03500120356F1200020EC0
:100C30000201345D046E000E3559056E3CC200F0B1
:100C4000000E016E026E036E000E066E076EDAEC89
:100C500001F000C038F201C039F202C03AF203C01C
:100C60003BF202013D510024386F3E510120396FA3
:100C70003F5102203A6F405103203B6F12000001A8
:100C8000086A096A100E0C6E0134083609360450E1
:100C9000085E0550D8A0053C095ED8B057EF06F0B5
:100CA000045008260550D8B0053C0926D8900036D7
:100CB00001360C2E44EF06F012000001086B080EFE
:100CC0000C6E003408360450085ED8B06AEF06F0A7
:100CD0000826D89000360C2E61EF06F012000001B5
:100CE0000D6A096A086A01500010D8B4000C01505E
:100CF00005180A6E0ABE0D1E0B6A05AE85EF06F0DA
:100D0000041E051E042AD8B4052A01AE8DEF06F094
:100D1000001E011E002AD8B4012A015005100A6ED7
:100D20000ABEA5EF06F00EEC02F00BB0BCEF06F029
:100D30000DAE000C001E011E002AD8B4012A081EA8
:100D4000091E082AD8B4092A000C05AEB7EF06F030
:100D500001BEB3EF06F00150096E0050086E016A43
:100D6000006A98EF06F0016A006A002A000C011E72
:100D7000001E0B2A93EF06F0082AD8B4092A045063
:100D8000085CD8A498EF06F00550095CD8A498EF49
:100D900006F0096A086A002AD8B4012A01AE98EF61
:100DA00006F00000FF0C120000010CB017EF07F076
:100DB0000CA2BFEF07F00E6A000E02642EEF07F0E0
:100DC000F00E0214D8A4F9EF06F0023A01380F0B26
:100DD00002260138F00B016E00380F0B0126003897
:100DE000F00B006E08380F0B00260838F00B086E69
:100DF0000E84D89002BE12EF07F008360036013696
:100E000002360E2A02BE12EF07F00836003601360F
:100E100002360E2A02BE12EF07F0083600360136FF
:100E200002360E2A0E500364B3EF07F0035E0BBCCC
:100E300008AEB9EF07F0D880800E08640030000ECD
:100E4000002201220222D8A0B9EF07F002320132BB
:100E50000032034ABFEF07F0B9EF07F001C002F01C
:100E600000C001F008C000F0086A000E0E8602649F
:100E700065EF07F0F00E0214D8A44DEF07F0023A28
:100E800001380F0B02260138F00B016E00380F0BF2
:100E900001260038F00B006E0E84D89002BE12EFCF
:100EA00007F00036013602360E2A02BE12EF07F0B6
:100EB0000036013602360E2A02BE12EF07F0003667
:100EC000013602360E2A12EF07F001C002F000C010
:100ED00001F0006A000E0E960E88026492EF07F091
:100EE000F00E0214D8A47DEF07F0023A01380F0B80
:100EF00002260138F00B016E0E84D89002BE12EF6C
:100F000007F0013602360E2A02BE12EF07F0013654
:100F100002360E2A02BE12EF07F0013602360E2A02
:100F200012EF07F001C002F0016A000E0E860264A3
:100F3000C5EF07F0F00E0214D8A4A1EF07F0023AB3
:100F40000E84D89002BE12EF07F002360E2A02BEBF
:100F500012EF07F002360E2A02BE12EF07F0023639
:100F60000E2A12EF07F0010E0C6E3FEC02F0C9EFF3
:100F700007F0020E0C6E4DEC02F0C9EF07F0040E04
:100F80000C6E52EC02F0C9EF07F0080E0C6E5FEC2D
:100F900002F01200EBC8E9FFECC8EAFFEECF00F068
:100FA0001200E20E0801F86F0E0EF96FEBC8FAF8A6
:100FB000ECC8FBF867EC02F0EDC861FF1200EBC86B
:100FC00061FF12007A0E0801F86F0F0EF96FEBC87F
:100FD000FAF8ECC8FBF867EC02F061CF00F0120001
:100FE0000801EB6BEC6B0801EC51120802E1EB51CC
:100FF0008E0808E370EC02F0005204E10801EB4BAC
:10100000EC2BF1D7120E0801EC5D02E18F0EEB5DC7
:1010100003E37B0E006E12000801C5800801C5A025
:1010200002D00000FBD7006A1200EBC8C9FF9E96F1
:10103000C7B4FED79EA6FED7016AC5BC012A0150DF
:10104000000A02E1006A1200C584020E006E12005E
:10105000C582C5A202D00000FCD71200C5869E96AC
:101060009EA6FED7C9CFECF8C59A0801EB51000A3D
:10107000D8B4C58AC5889E9608019EA6FDD7ECC83F
:1010800000F01200C5841200C79CC79E9488948605
:10109000380EC66E1200EBC822F0ECC823F0EDC883
:1010A00024F0EEC825F022C0E1FFECC8E2FF600E9C
:1010B000E76E120E2224E16EE76AE788E78E24C00D
:1010C000E1FFEEC8E2FFE76A120E2424E16EE76A50
:1010D000120022C0E1FF23C0E2FF016AE7B8012A43
:1010E0000150000A03E1FF0E006E1200006A1200B8
:1010F0000201416B426B436B446B456B466B476B24
:10110000486B496B4A6B4B6B4C6B346B356B386B74
:10111000396B3A6B3B6B4D6B4E6B4F6B506B2A6A66
:101120002B6A2C6A2D6A306B316B326B336B266AFB
:10113000276A516B526B286A296A536B546B2E6B6A
:101140002F6B366B376B556B566B576B586B596BF8
:101150005A6B3D6B3E6B3F6B406B3C6B5B6B5C6BF0
:101160005D6B5E6B5F6B606B616B626B636B646B23
:10117000656B120000010C6A07BE0C2A0D6A0B6A2F
:101180000A6A096A086A0350021001100010D8B4F4
:101190005EEF09F0035007180E6E0EBE0D1E07AE6F
:1011A000DDEF08F0041E051E061E071E042AD8B433
:1011B000052AD8B4062AD8B4072A03AEEBEF08F004
:1011C000001E011E021E031E002AD8B4012AD8B434
:1011D000022AD8B4032A035007100E6E0EBE11EF78
:1011E00009F081EC02F00CBE32EF09F00DAE5EEFBB
:1011F00009F0001E011E021E031E002AD8B4012A97
:10120000D8B4022AD8B4032A081E091E0A1E0B1ECF
:10121000082AD8B4092AD8B40A2AD8B40B2A5EEF0F
:1012200009F007AE2BEF09F003BE25EF09F00350DC
:101230000B6E02500A6E0150096E0050086E036A70
:10124000026A016A006AF6EF08F0036A026A016A3C
:10125000006A002A000C031E021E011E001E0C8ED6
:10126000F1EF08F0082AD8B4092AD8B40A2AD8B469
:101270000B2A0450085CD8A4F6EF08F00550095C6E
:10128000D8A4F6EF08F006500A5CD8A4F6EF08F0F0
:1012900007500B5CD8A4F6EF08F00B6A0A6A096ADB
:1012A000086A002AD8B4012AD8B4022AD8B4032A7A
:1012B00003AEF6EF08F00E6A0E88FF0C0E6A0CA063
:1012C00064EF09F0C1EC03F0000F12000801EB51CC
:1012D0007A0807E3610EEB5D04E3010E006E72EF26
:1012E00009F0006A000E016E12000801EB517A0845
:1012F00004E3610EEB5DD8B0EB9BEBC800F012008D
:1013000034C204F035C205F0000E066E076E04C04C
:10131000EBF805C0ECF806C0EDF807C0EEF80801E0
:10132000EB37EB91EC37ED37EE372EC204F02FC2DE
:1013300005F0000E066E076EEBC800F0ECC801F079
:10134000EDC802F0EEC803F0CEEC03F000C026F0CA
:1013500001C027F02EC204F02FC205F0000E066E69
:10136000076EEBC800F0ECC801F0EDC802F0EEC863
:1013700003F0CEEC03F008C000F009C001F00AC091
:1013800002F00BC003F000C028F001C029F01200E9
:101390000201476B486B456B466B58EC05F0BAECA5
:1013A00005F0FEEC05F041C201F942C202F943C268
:1013B00003F944C204F92E0E0901056F000E066FF1
:1013C0005CEC01F00801EF6B020148512F1902E1BA
:1013D0002E5147191EE10201476B486B454B462BC6
:1013E000455141250901016F020146514221090180
:1013F000026F000E020143210901036F000E02017A
:1014000044210901046F2E0E056F000E066F5CEC7F
:1014100001F02E0E02014725E96E000E4821EA6E0A
:10142000EECF02F00250E50A0BE02E0E4725E96EE2
:10143000000E4821EA6EEECF02F00250000A03E1EE
:10144000010E0801EF6F200E02014727000E48230E
:101450000801EF53B9E00801EF51010AD8A48FD079
:10146000200E0201475F000E485B0801EE6B080189
:10147000EE510A081BE3EE5102014725006E000EF3
:101480004821016E2E0E0024E16E000E0120E26E56
:101490000801EE51EB25E96E000EEC21EA6EEECF6D
:1014A00000F000C0E6FF0801EE2BE1D71C0E08019A
:1014B000EE6F200E0801EE5D11E2EE5102014725AC
:1014C000006E000E4821016E2E0E0024E16E000E0B
:1014D0000120E26EE66A0801EE2BEBD71A0E02013C
:1014E0004725006E000E4821016E2E0E0024E16E8D
:1014F000000E0120E26E34C2E6FF35C2E6FF0B0E9D
:101500004725006E000E4821016E2E0E0024E16E6C
:10151000000E0120E26EEDC8E6FF0D0E0801EE6F31
:101520000801EE51190811E3EE5102014725006E42
:10153000000E4821016E2E0E0024E16E000E0120E7
:10154000E26EE66A0801EE2BEBD702014551412518
:101550000901016F0201465142210901026F000E8B
:10156000020143210901036F000E02014421090118
:10157000046F2E0E056F000E066F89EC01F017EC5C
:1015800006F0120026502A240901016F27502B2053
:10159000026F000E2C20036F000E2D20046F2E0E04
:1015A000056F000E066F5CEC01F02E0E2824006E15
:1015B000000E2920016E00C0E9FF01C0EAFFEECF56
:1015C000ECF8000E0801ED6FEE6FEF6F000EED6F9F
:1015D000EE6FEF6FEECFEDF826C051F227C052F25A
:1015E00028C053F229C054F200C0E1FF01C0E2FF5D
:1015F000EBC8E6FFEBC8E6FF26502A240901016F7D
:1016000027502B20026F000E2C20036F000E2D2080
:10161000046F2E0E056F000E066F89EC01F0265048
:10162000020130250901016F275002013121090112
:10163000026F000E020132210901036F000E020148
:1016400033210901046F2E0E056F000E066F89EC21
:1016500001F0000E006E0801EF1908E10050EE19CC
:1016600005E1FF0EED1902E1EC51FF0AD8B4A8D054
:10167000ECC8F4F8EDC8F5F8EEC8F6F8EFC8F7F8DE
:101680000801F437F491F537F637F737F4C8ECF87A
:10169000F5C8EDF8F6C8EEF8F7C8EFF82EC204F07A
:1016A0002FC205F0000E066E076EF4C800F0F5C8F4
:1016B00001F0F6C802F0F7C803F0CEEC03F000C06A
:1016C000F0F801C0F1F802C0F2F803C0F3F8F0C876
:1016D00026F0F1C827F02EC204F02FC205F0000E4C
:1016E000066E076EF4C800F0F5C801F0F6C802F007
:1016F000F7C803F0CEEC03F008C000F009C001F019
:101700000AC002F00BC003F000C028F001C029F0AD
:101710000801F0512A240901016F0801F1512B2021
:101720000901026F000E2C20036F000E2D20046FA4
:101730002E0E056F000E066F5CEC01F02E0E2824B5
:10174000006E000E2920016E00C0E9FF01C0EAFF13
:10175000EECFECF8EECFEDF800C0E1FF01C0E2FF04
:10176000E66AE66A26502A240901016F27502B20D9
:10177000026F000E2C20036F000E2D20046F2E0E22
:10178000056F000E066F89EC01F02650020130252E
:101790000901016F2750020131210901026F000E7A
:1017A000020132210901036F000E020133210901F8
:1017B000046F2E0E056F000E066F89EC01F049D7FD
:1017C00051C226F052C227F053C228F054C229F069
:1017D0001200EDC8E1FFEEC8E2FF200EE66E010E3A
:1017E0000801ED25E16E000EEE21E26E200EE66EA0
:1017F000020EED25E16E000EEE21E26E200EE66E89
:10180000030EED25E16E000EEE21E26E200EE66E77
:10181000040EED25E16E000EEE21E26E300EE66E56
:10182000050EED25E16E000EEE21E26EE66A040E75
:10183000EF6F000E006E0801EC51005C02E1EB510D
:1018400000082AE20801EF51ED25E16E000EEE21BD
:10185000E26E0A0E046E000E056EEBC800F0ECC8D6
:1018600001F03FEC06F008C000F009C001F0300EB6
:10187000002600C0E6FF0A0E046E000E056EEBC8DF
:1018800000F0ECC801F03FEC06F000C0EBF801C03E
:10189000ECF80801EF07CDD7120026502A240901E1
:1018A000016F27502B20026F000E2C20036F000EBB
:1018B0002D20046F2E0E056F000E066F5CEC01F0FC
:1018C0002E0E2824E96E000E2920EA6EEECFEBF8EA
:1018D000EECFECF80801EC51FF0A02E1FF0EEB1924
:1018E0002DE036C204F037C205F0EBC800F0ECC8BA
:1018F00001F03FEC06F000C026F001C027F036C230
:1019000004F037C205F0EBC800F0ECC801F03FEC82
:1019100006F008C000F009C001F000C028F001C0C6
:1019200029F000C028F001C029F028362890293677
:10193000EBC834F2ECC835F217EC06F01200ECC834
:10194000E9FFEDC8EAFF200EEE6E200EEE6E200ECF
:10195000EE6EEF6A010E0801EE6FEB510908D8A098
:10196000EE2B0801EB516308D8A0EE2BED6A0801BD
:10197000EE5100081EE20A0E046EEBC800F05DECAA
:1019800006F008C000F000C0EFFFEF500801EB5D6B
:10199000006E016A000E015A0A0E046E000E056EFA
:1019A0006FEC06F000C0EBF8300EED260801EE07F4
:1019B000DED7120000010D6A086A0050D8B4000C8E
:1019C00004180A6E0ABE0D1E0B6A04AEEAEF0CF094
:1019D000041E042A00A0EFEF0CF0001E002A0050A5
:1019E00004100A6E0ABE16EF0DF00450085E0036B1
:1019F00000340836045008260036060E0C6E0034FB
:101A00000836045000B0085E00A0082600360C2EF0
:101A1000FFEF0CF000A008260BB028EF0DF00DAE84
:101A2000000C001E002A081E082A000C04AE24EF39
:101A30000DF000BE21EF0DF00050086E006A0FEFB0
:101A40000DF0006A002A000C001E0B2AF5EF0CF0C6
:101A5000082A0450085CD8A40FEF0DF0086A002A89
:101A600000AE0FEF0DF0FF0C12000001086A096ACA
:101A7000000E07620364BBEF0DF0025006180A6EF9
:101A8000075003267E0ED8A04CEF0DF0035ED8B0B1
:101A9000C0EF0DF050EF0DF0035ED8A0C5EF0DF0D4
:101AA000028E068E02C00EF001C00BF000C00DF0D9
:101AB00000500402F4CF0CF001500502F4CF00F006
:101AC000F3CF08F00402F3500C26F4500822000E65
:101AD00000220D500502F3500C26F4500822000E8F
:101AE000002202500402F3500826F4500022025053
:101AF0000502016A000E0122F3500026F450012273
:101B00000D500602F3500826F4500022026A000E1F
:101B1000012202220B500602F3500026F45001224B
:101B2000000E02220E500602F3500126F45002224B
:101B300002BEA3EF0DF0083600360136023603066A
:101B4000D8B4C5EF0DF0B6EF0DF0D880800E086464
:101B50000030000E002201220222D8A0B6EF0DF0C4
:101B6000023201320032034AC0EF0DF00AAE029E8B
:101B7000000EC8EF0DF0010E5FEC02F0C8EF0DF0A3
:101B8000020E52EC02F0C8EF0DF0040E3FEC02F032
:101B9000120000010B6A0B86FF0E120000010B8081
:101BA0000BAEDBEF0DF0026A0AAEFF0E026E016EA5
:101BB000006E0A360232FF0E1200000102500618B3
:101BC0000E6E086A096A0B6A03500764D1EF0EF0C3
:101BD00006500A6E068E028E03500B6E0750036E7F
:101BE000000E0B6421EF0EF00B50075ED8B4C2EF6D
:101BF0000EF0070E076490EF0EF0075E00C008F0CD
:101C000001C000F002C001F0026A074EC2EF0EF000
:101C1000076465EF0EF0075E00C008F001C000F039
:101C2000016A074EC2EF0EF0076443EF0EF0075E45
:101C300000C008F0006A074EC2EF0EF007642AEFFA
:101C40000EF00AC002F005C001F004C000F0086AFE
:101C5000EEEF0FF0030E076435EF0EF0075E083865
:101C60000F0B086E074EC2EF0EF0D8900832074EE9
:101C7000C2EF0EF0D8900832074EC2EF0EF0D890A7
:101C80000832C2EF0EF0030E076454EF0EF0075E49
:101C900008380F0B086E0038F00B082600380F0BC1
:101CA000006E074EC2EF0EF0D89000320832074E99
:101CB000C2EF0EF0D89000320832074EC2EF0EF09D
:101CC000D89000320832C2EF0EF0030E07647CEFAA
:101CD0000EF0075E08380F0B086E0038F00B082670
:101CE00000380F0B006E0138F00B002601380F0B87
:101CF000016E074EC2EF0EF0D8900132003208326A
:101D0000074EC2EF0EF0D890013200320832074E73
:101D1000C2EF0EF0D890013200320832C2EF0EF05E
:101D2000030E0764ADEF0EF0075E08380F0B086E68
:101D30000038F00B082600380F0B006E0138F00B4E
:101D4000002601380F0B016E0238F00B0126023815
:101D50000F0B026E074EC2EF0EF0D8900232013226
:101D600000320832074EC2EF0EF0D8900232013234
:101D700000320832074EC2EF0EF0D8900232013224
:101D800000320832096A000E0EAEB6EF0FF0081EE0
:101D9000001E011E021E082A002201220222B6EFA6
:101DA0000FF00750D8A4D7EF0EF0EEEF0FF0096A4E
:101DB00002C00AF0028E068E0750035C076ED8B48C
:101DC000A9EF0FF0070E076477EF0FF0075E0450DE
:101DD000096E0550046E0650056E066A074EA9EF9F
:101DE0000FF0070E07644CEF0FF0075E0450096E0A
:101DF0000550046E056A074EA9EF0FF0070E076441
:101E00002AEF0FF0075E0450096E046A074EA9EF2F
:101E10000FF0070E076411EF0FF00AC002F0EEEFAB
:101E20000FF0030E07641CEF0FF0075E09380F0B6D
:101E3000096E074EA9EF0FF0D8900932074EA9EFAF
:101E40000FF0D8900932074EA9EF0FF0D890093261
:101E5000A9EF0FF0030E07643BEF0FF0075E0938A0
:101E60000F0B096E0438F00B092604380F0B046EB3
:101E7000074EA9EF0FF0D89004320932074EA9EFB0
:101E80000FF0D89004320932074EA9EF0FF0D89026
:101E900004320932A9EF0FF0030E076463EF0FF06D
:101EA000075E09380F0B096E0438F00B0926043859
:101EB0000F0B046E0538F00B042605380F0B056E6A
:101EC000074EA9EF0FF0D890053204320932074EC1
:101ED000A9EF0FF0D890053204320932074EA9EF6E
:101EE0000FF0D890053204320932A9EF0FF0030E3B
:101EF000076494EF0FF0075E09380F0B096E043882
:101F0000F00B092604380F0B046E0538F00B04267D
:101F100005380F0B056E0638F00B052606380F0B3B
:101F2000066E074EA9EF0FF0D89006320532043244
:101F30000932074EA9EF0FF0D8900632053204326D
:101F40000932074EA9EF0FF0D8900632053204325D
:101F50000932086A000E0EAEB6EF0FF0091E041E1D
:101F6000051E061E092A04220522062209500826FB
:101F70000450002205500122065002220EBECDEF71
:101F80000FF0D8A0DCEF0FF002320132003208323D
:101F9000033EDCEF0FF0E8EF0FF0D8B0E2EF0FF008
:101FA000000E081E001E011E021E082A0022012229
:101FB00002220A7EE2EF0FF0010E0C6ED4EC06F066
:101FC000F0EF0FF0020E0C6ED4EC06F0F0EF0FF015
:101FD000040E0C6E52EC02F0F0EF0FF0000E0C6EDF
:101FE0001200E20E0801F86F0E0EF96FD5C8FAF86C
:101FF000D6C8FBF867EC02F00801D9530AE0D7C84D
:10200000E9FFD8C8EAFFEECF61FFD74BD82BD9073D
:10201000F3D71200D7C800F00801D707005209E033
:10202000D5C8E9FFD6C8EAFFEECF61FFD54BD62B66
:10203000F1D71200D6C861FF00000000D5C861FFCB
:1020400012000801D751D525D96FD851D621DA6FA2
:10205000010ED95F000EDA5BF00EF86F0E0EF96F0D
:10206000D5C8FAF8D6C8FBF867EC02F0F20E080102
:10207000F86F0E0EF96FD9C8FAF8DAC8FBF867ECFA
:1020800002F0300ED212D20E0801EB6F0F0EEC6F81
:10209000CAEC07F000BAF7D71200D5C8EBF8D6C8DB
:1020A000ECF8D7C8EDF8D1EC07F0D8C8EBF8DFECC6
:1020B00007F012000801DC6B010ED75F000ED85B41
:1020C000DB530EE0D851190802E1D751AD0808E200
:1020D0000801DC2BAD0ED75DDD6F190ED859DE6F10
:1020E00008010801DC5305E0AD0E026E190E036E07
:1020F00004D0D7C802F0D8C803F00801D65103189D
:1021000002E10250D5190FE1D5C8EBF8D6C8ECF8BA
:10211000E2EC07F000C0EDF8D9C8EBF8DAC8ECF84B
:10212000D1EC07F03DD0F00E0801F86F0E0EF96FFC
:10213000D5C8FAF8D6C8FBF867EC02F0F20E080131
:10214000F86F0E0EF96FDC5305E0AD0E006E190E40
:10215000016E04D0D7C800F0D8C801F000C0FAF86A
:1021600001C0FBF867EC02F0F40E0801F86F0E0EE8
:10217000F96FD9C8FAF8DAC8FBF867EC02F0EF0E8D
:10218000D214006E00C0D2FF200E0010D26ED20E0C
:102190000801EB6F0F0EEC6FCAEC07F000BAF7D72F
:1021A0000801DC531AE0D551D75D006ED651D859DD
:1021B000016EDD51005EDE51015A004A012A0050D5
:1021C000D9270150DA23010EDD5DD76F000EDE59ED
:1021D000D86FD56BD66BDC6B83D71200AE0E0801BF
:1021E000EB6F190EEC6FED6BD1EC07F0AE0E080142
:1021F000D525006E190ED621016E00C0D5F801C09C
:10220000D6F8E60EF86F0E0EF96F00C0FAF801C0AE
:10221000FBF867EC02F0D286D20E0801EB6F0F0ECE
:10222000EC6FCAEC07F000B6F7D7FD0E0801EB6FB4
:102230000E0EEC6FCAEC07F0060E0016005202E01C
:10224000006A02D0010E006E12003E0EC86E44EC11
:1022500008F0F0EC07F0D00E0801EB6F15EC08F079
:102260000801EB6B15EC08F028EC08F0D10E080122
:10227000EB6F15EC08F0010E0801EB6F2EEC08F087
:1022800000C0D5F8010E0801EB6F2EEC08F000C07D
:10229000D6F8010E0801EB6F2EEC08F000C0D7F85D
:1022A000010E0801EB6F2EEC08F0010E0801EB6F38
:1022B0002EEC08F000C0D8F8010E0801EB6F2EECF0
:1022C00008F000C0D9F80801EB6B2EEC08F000C054
:1022D000DAF842EC08F0F00E0801D5150201666F3D
:1022E0006633669F6633669F6633669F6633669F76
:1022F0000A0E6603F3CF66F20F0E0801D515006EC5
:10230000005002016627F00E0801D6150201676F22
:102310006733679F6733679F6733679F6733679F3D
:102320000A0E6703F3CF67F20F0E0801D615006E91
:10233000005002016727F00E0801D7150201686FEF
:102340006833689F6833689F6833689F6833689F05
:102350000A0E6803F3CF68F20F0E0801D715006E5E
:10236000005002016827F00E0801D8150201696FBC
:102370006933699F6933699F6933699F6933699FCD
:102380000A0E6903F3CF69F20F0E0801D815006E2B
:10239000005002016927F00E0801D91502016A6F89
:1023A0006A336A9F6A336A9F6A336A9F6A336A9F95
:1023B0000A0E6A03F3CF6AF20F0E0801D915006EF8
:1023C000005002016A27F00E0801DA1502016B6F56
:1023D0006B336B9F6B336B9F6B336B9F6B336B9F5D
:1023E0000A0E6B03F3CF6BF20F0E0801DA15006EC5
:1023F000005002016B2712000801DD6BDE6BDE6B03
:10240000D5C8EBF8D6C8ECF8D7C8EDF8D8C8EEF8C0
:102410004BEC08F069EC08F0005207E11E0E0801D1
:10242000DE5D03E20801DE2BF5D71E0E0801DE5D3E
:1024300003E3FF0E006E120078EC08F05EC201F9B3
:102440005FC202F960C203F961C204F92E0E0901EC
:10245000056F000E066F5CEC01F002012C51550A6D
:10246000D8A469D02D51AA0AD8A465D02E50E90A63
:1024700009E02E50EB0A03E13050900A03E002011C
:10248000006A03D00201010E006E005251E1010109
:10249000F85306E1F95304E1FA5302E1FB5309E072
:1024A000F4C15EF2F5C15FF2F6C160F2F7C161F20C
:1024B00039D00201085306E1095304E10A5302E14D
:1024C0000B5309E004C25EF205C25FF206C260F27D
:1024D00007C261F227D00201185306E1195304E143
:1024E0001A5302E11B5309E014C25EF215C25FF2F7
:1024F00016C260F217C261F215D00201285306E13C
:10250000295304E12A5302E12B5309E024C25EF26D
:1025100025C25FF226C260F227C261F203D0010E2B
:10252000006E12000201020102010801DD6B03D0FE
:10253000010E0801DD6F0801DE6B0801DD532BE1A0
:102540005EC201F95FC202F960C203F961C204F917
:102550002E0E0901056F000E066F5CEC01F0020102
:102560002C51550A07E12D51AA0A04E1010E080178
:10257000DD6F11D00801DE51400A03E1010E006E4B
:1025800012000801DE2B010E02015E27000E5F2300
:1025900060236123D2D7010E0801DE6FDD51010AED
:1025A000D8A46ED1080E046E3AC000F0000E016E81
:1025B0000450080105E0003600900136FF0FF9D7FE
:1025C000395000100801E76F01C0E8F8000EE81369
:1025D000E7C82EF2E8C82FF23BC03CF2080E046EAA
:1025E0003DC000F0000E016E0450080105E0003609
:1025F00000900136FF0FF9D73C5000100801E56F3D
:1026000001C0E6F8000EE613E5C855F2E6C856F23A
:102610003EC05CF2080E046E45C000F0000E016E74
:102620000450080105E0003600900136FF0FF9D78D
:10263000445000100801E36F01C0E4F8000EE413F9
:10264000E3C857F2E4C858F23EC000F0000E016E35
:10265000E3C804F0E4C805F0B1EC01F0000E026E2E
:10266000036E02015E5100265F5101226051022279
:10267000615103220801E5510024DF6FE65101207A
:10268000E06F000E0220E16F000E0320E26FDFC852
:1026900041F2E0C842F2E1C843F2E2C844F2080E57
:1026A000046E40C000F0000E016E0450080105E009
:1026B000003600900136FF0FF9D708013F50001295
:1026C000000E011200C059F201C05AF2000E026E53
:1026D000036E050E046E0450080107E000360090FA
:1026E000013602360336FF0FF7D70801E751002401
:1026F000086EE8510120096E000E02200A6E000EDD
:1027000003200B6E010E046E000E056E066E076E42
:1027100008C000F009C001F00AC002F00BC003F0CD
:102720000450005E0550015A0650025A0750035AE1
:10273000E7C804F0E8C805F0000E066E076EBAECB4
:1027400008F000500801DF2502013D6F015008012B
:10275000E02102013E6F02500801E12102013F6FBA
:1027600003500801E2210201406F0801E551020116
:102770005E25006E0801E65102015F21016E000E28
:102780006021026E000E6121036E00C02AF001C0BC
:102790002BF002C02CF003C02DF00801E3510024FF
:1027A0000201306F0801E45101200201316F000E77
:1027B0000220326F000E0320336FE7C836F2E8C8FC
:1027C00037F237333633379F4450451055E0425087
:1027D000411005E041C0D9F842C0DAF808D04EC037
:1027E000D9F84FC0DAF850C0DBF851C0DCF8D9C8CE
:1027F00000F0DAC801F0DBC802F0DCC803F0020127
:102800003D51005E3E51015A3F51025A4051035A18
:102810003CC204F0000E056E066E076ECEEC03F0AF
:1028200000C0D9F801C0DAF802C0DBF803C0DCF858
:10283000000E035C08E1000E025C05E10F0E015C76
:1028400002E1F50E005C04E2010E0801DE6F13D018
:10285000000E0801DC5D08E1000EDB5D05E1FF0E06
:10286000DA5D02E1F50ED95D03E20801DE6B03D00B
:10287000010E0801DE6F04D00801010E006E120087
:102880000801DEC800F012000801D86BD96B0801FE
:10289000D851D525E96E000ED621EA6EEECF02F0B2
:1028A0000250000A4AE0D851D525E96E000ED62123
:1028B000EA6EEECF02F002502E0A02E1D8C8D9F833
:1028C0000801D851D525E96E000ED621EA6EEECF6B
:1028D000EBF866EC09F00050011019E0DD0EE96F2D
:1028E000080EEA6FD851E927D8B0EA2BD851D52580
:1028F000E96E000ED621EA6EEECFEBF875EC09F02A
:10290000E9C8E1FFEAC8E2FF00C0E6FF13D0DD0E30
:10291000E16E080EE26E0801D851E126D8B0E22A35
:10292000D851D525E96E000ED621EA6EEECF00F023
:1029300000C0E6FF0801D82BAAD7DD0EE16E080E15
:10294000E26E0801D851E126D8B0E22AE66AD953EE
:102950005FE0D9C8D8F8030E0801D925026E036AD2
:10296000000E0322800E006E800E0318005C02E150
:102970000250D85D4DE20801D851010F006E016A86
:10298000000E0122DD0E0024E96E080E0120EA6E21
:10299000EECF02F00250000A1FE1020E0801D92515
:1029A000026E036A000E0322800E0318006E800E72
:1029B000005C02E1D851025C0DE3DD0EE16E080E11
:1029C000E26E0801D851E126D8B0E22A200EE66E68
:1029D000D82BE3D708011CD0DD0EE16E080EE26EA5
:1029E0000801D851E126D8B0E22AD851010F006E73
:1029F000016A000E0122DD0E0024E96E080E01209E
:102A0000EA6EEECF00F000C0E6FF0801D82BA3D796
:102A100008010801D8070A0ED85D30E2DD0EE96E24
:102A2000080EEA6ED851E926D8B0EA2AEECFE7F8C8
:102A3000D807DD0EE96E080EEA6ED851E926D8B047
:102A4000EA2AEECFE6F8D807DD0EE96E080EEA6E48
:102A5000D851E926D8B0EA2AEECFE5F80801D851D6
:102A600007080CE3DD0EE16E080EE26ED851E12698
:102A7000D8B0E22A200EE66ED82BF0D70801E86B1A
:102A80000201476B486B456B466B41C201F942C27C
:102A900002F943C203F944C204F92E0E0901056F7D
:102AA000000E066F5CEC01F00801DA6BDB6BD96B92
:102AB000020148512F1902E12E5147191EE102016E
:102AC000476B486B454B462B455141250901016F2A
:102AD0000201465142210901026F000E0201432109
:102AE0000901036F000E020144210901046F2E0E3B
:102AF000056F000E066F5CEC01F00801D96BD86B16
:102B00000801D8510A0821E3D85102014725006E77
:102B1000000E4821016E2E0E0024E96E000E0120E9
:102B2000EA6EEECF04F0DD0EE96E080EEA6E0801E3
:102B3000D851E926D8B0EA2AEECF02F004500218A4
:102B4000D8B4D92B0801D82BDBD70801DA4BDB2B03
:102B50002E0E02014725E96E000E4821EA6EEECFE7
:102B6000DCF8200E4727000E48230801D9510B0A34
:102B700011E0DB5102015A1903E159510801DA1938
:102B800003E11E0E0801D96F0801DC51000A02E1C1
:102B9000190ED96F0801D9510A088AE2140E0801EA
:102BA000D95D49E2200E0201475D006E000E4859D2
:102BB000016E00C047F201C048F21A0E0026000E56
:102BC00001222E0E0024E96E000E0120EA6EEECFE7
:102BD00034F2EECF35F217EC06F01C0E4725006EEE
:102BE000000E4821016E2E0E0024E96E000E012019
:102BF000EA6EEECF4DF2EECF4EF2EECF4FF2EECFC9
:102C000050F280EC09F00E0E02014725006E000E16
:102C10004821016E2E0E0024E96E000E0120EA6E9E
:102C2000EECF64F2EECF65F2EECF62F2EECF63F25A
:102C3000010E006E12000801D7AF0CD0DD0EEB6F55
:102C4000080EEC6F7F0ED715ED6FC8EC09F0010E82
:102C5000006E1200006A1200FF0E0801EB6FC2EC5A
:102C60000AF00201496B4A6B4B6B4C6B4D6B4E6B20
:102C70004F6B506B5B6BFEEC05F017EC06F04551AB
:102C800041250901016F0201465142210901026FEC
:102C9000000E020143210901036F000E02014421CD
:102CA0000901046F2E0E056F000E066F5CEC01F03B
:102CB0001C0E02014725006E000E4821016E2E0EEB
:102CC0000024E16E000E0120E26EE66AE66AE66A22
:102CD000E66A455141250901016F02014651422131
:102CE0000901026F000E020143210901036F000E6A
:102CF000020144210901046F2E0E056F000E066FBC
:102D000089EC01F012000801DA6BD5C8DBF8D6C8EF
:102D1000DCF8800ED619006E800E005C02E1000E19
:102D2000D55D0AE2010E0801DA6FD5510008DB6FAC
:102D3000D6C8DCF8E86ADC57DBC8EBF8DCC8ECF88E
:102D4000D7C8EDF8D8C8EEF8E9EC0BF0060E08018C
:102D5000D96F0801D951000817E2D951D725E16E82
:102D6000000ED821E26ED905006E016A000E015AEC
:102D70000050D725E96E0150D821EA6EEECF00F061
:102D800000C0E6FFD907E5D7D7C8E1FFD8C8E2FF02
:102D9000200EE66E0801DA5319E0D96B0801D9510B
:102DA000D725E96E000ED821EA6EEECF02F0025070
:102DB000200A02E1D92BF2D70801D907D951D7252A
:102DC000E16E000ED821E26E2D0EE66E12000201B9
:102DD000496B4A6B4B6B4C6BD5C8E1FFD6C8E2FF21
:102DE0004DC2E6FF4EC2E6FF4FC2E6FF50C2E6FF0D
:102DF0005B6B38C201F939C202F93AC203F93BC22E
:102E000004F92E0E0901056F000E066F5CEC01F04F
:102E100012002E0E02014925E96E000E4A21EA6ECB
:102E2000EECF00F0D5C8E1FFD6C8E2FF00C0E6FF54
:102E3000010E4927000E4A234B234C23000E006E3F
:102E40004C1908E100504B1905E12F514A1902E1D4
:102E500049512E1921E1010E02013827000E3923B4
:102E60003A233B23496B4A6B4B6B4C6B5B2B5B519F
:102E70003C1903E15B6B4DEC0CF038C201F939C22F
:102E800002F93AC203F93BC204F92E0E0901056F9B
:102E9000000E066F5CEC01F01200D5C8EBF8D6C846
:102EA000ECF8D7C8EDF89FEC0CF0D6C8E9FFD7C80E
:102EB000EAFFEECF01F00150200A06E1D6C8E1FF9B
:102EC000D7C8E2FF300EE66E010E0801D625E96E86
:102ED000000ED721EA6EEECF01F00150200A08E182
:102EE000010ED625E16E000ED721E26E300EE66EA1
:102EF0001200D5C8DBF8D6C8DCF8DBC8E9FFDCC8AF
:102F0000EAFFEECF00F0005204E00801DB4BDC2BBF
:102F1000F4D708010801D951DA1122E0DBC802F028
:102F2000DCC803F0DB4BDC2BD7C8E9FFD8C8EAFFCD
:102F3000D74BD82BEECF00F002C0E1FF03C0E2FF79
:102F400000C0E6FF02C0E9FF03C0EAFFEECF00F0D9
:102F5000005206E0010E0801D95F000EDA5BD9D7F6
:102F6000000E0801DA1902E1000ED91905E1DBC8EB
:102F7000E1FFDCC8E2FFE66AD5C800F0D6C801F080
:102F8000120026C051F227C052F228C053F229C0C5
:102F900054F258EC05F0BAEC05F0FEEC05F0020135
:102FA00051512A240901016F020152512B200901BC
:102FB000026F000E2C20036F000E2D20046F2E0ECA
:102FC000056F000E066F5CEC01F02E0E020153251A
:102FD000E16E000E5421E26E34C2E6FF35C2E6FF18
:102FE00051512A240901016F020152512B2009017C
:102FF000026F000E2C20036F000E2D20046F2E0E8A
:10300000056F000E066F89EC01F002015151302569
:103010000901016F0201525131210901026F000EB5
:10302000020132210901036F000E0201332109015F
:10303000046F2E0E056F000E066F89EC01F017EC81
:1030400006F012000801D551390807E3300ED55DAE
:1030500004E3010E006E2EEF18F0006A1200800EDD
:103060000801D519006E800E000A005CD8B081D12D
:10307000D5510008046E04C0D5F8800E0418006E07
:10308000800E6E0A005CD8A0C6D0640E046ED5C84F
:1030900000F0DAEC0CF0120E0026000E00BEFF0E5F
:1030A000016E000E0122020E046E000E01BEFF0E24
:1030B000026E036E0450000107E0003600900136F6
:1030C00002360336FF0FF7D70001760E0026D00E2A
:1030D0000122000E022200C0F6FF01C0F7FF02C06D
:1030E000F8FF0900F5CFD6F80900F5CFD7F80900A9
:1030F000F5CFD8F80900F5CFD9F8640E046ED5C81D
:1031000000F0DAEC0CF008C000F00A0E046EDAEC05
:103110000CF0090E0026000E00BEFF0E016E000E20
:103120000122020E046E000E01BEFF0E026E036E3F
:103130000450000107E000360090013602360336E5
:10314000FF0FF7D70001760E0026D00E0122000EE9
:10315000022200C0F6FF01C0F7FF02C0F8FF09001D
:10316000F5CF00F00900F5CF01F00900F5CF02F02E
:103170000900F5CF03F0D6C804F0D7C805F0D8C8C9
:1031800006F0D9C807F035EC0DF000C0D6F801C044
:10319000D7F802C0D8F803C0D9F80A0E046ED5C813
:1031A00000F0DAEC0CF008C000F0020E046E000E25
:1031B00000BEFF0E016E026E036E0450000107E0B8
:1031C00000360090013602360336FF0FF7D70001B4
:1031D000760E0026D00E0122000E022200C0F6FF5D
:1031E00001C0F7FF02C0F8FF0900F5CF00F00900A9
:1031F000F5CF01F00900F5CF02F00900F5CF03F09B
:10320000D6C804F0D7C805F0D8C806F0D9C807F06A
:1032100035EC0DF01200800E0A0A006E800E0801D7
:10322000D519005C76E20A0E046ED5C800F0DAEC1F
:103230000CF0090E0026000E00BEFF0E016E000EFF
:103240000122020E046E000E01BEFF0E026E036E1E
:103250000450000107E000360090013602360336C4
:10326000FF0FF7D70001760E0026D00E0122000EC8
:10327000022200C0F6FF01C0F7FF02C0F8FF0900FC
:10328000F5CFD6F80900F5CFD7F80900F5CFD8F873
:103290000900F5CFD9F80A0E046ED5C800F0DAECB3
:1032A0000CF008C000F0020E046E000E00BEFF0E0F
:1032B000016E026E036E0450000107E000360090BC
:1032C000013602360336FF0FF7D70001760E0026CF
:1032D000D00E0122000E022200C0F6FF01C0F7FF4F
:1032E00002C0F8FF0900F5CF00F00900F5CF01F0AA
:1032F0000900F5CF02F00900F5CF03F0D6C804F0BD
:10330000D7C805F0D8C806F0D9C807F035EC0DF0DD
:1033100012000001020E046ED5C800F0000E080174
:10332000D5BFFF0E016E026E036E0450080107E068
:1033300000360090013602360336FF0FF7D708013A
:10334000760E0026D00E0122000E022200C0F6FFEB
:1033500001C0F7FF02C0F8FF0900F5CF00F0090037
:10336000F5CF01F00900F5CF02F00900F5CF03F029
:103370001200800E0801D519006E800E6E0A005CE6
:10338000D8A0C6D0640E046ED5C800F0DAEC0CF0FC
:10339000120E0026000E00BEFF0E016E000E01226E
:1033A000020E046E000E01BEFF0E026E036E04508C
:1033B000000107E000360090013602360336FF0FA9
:1033C000F7D70001AA0E0026D00E0122000E02221D
:1033D00000C0F6FF01C0F7FF02C0F8FF0900F5CFFB
:1033E000D6F80900F5CFD7F80900F5CFD8F80900CD
:1033F000F5CFD9F8640E046ED5C800F0DAEC0CF005
:1034000008C000F00A0E046EDAEC0CF0090E00267B
:10341000000E00BEFF0E016E000E0122020E046EB1
:10342000000E01BEFF0E026E036E0450000107E0A5
:1034300000360090013602360336FF0FF7D7000141
:10344000AA0E0026D00E0122000E022200C0F6FFB6
:1034500001C0F7FF02C0F8FF0900F5CF00F0090036
:10346000F5CF01F00900F5CF02F00900F5CF03F028
:10347000D6C804F0D7C805F0D8C806F0D9C807F0F8
:1034800035EC0DF000C0D6F801C0D7F802C0D8F86E
:1034900003C0D9F80A0E046ED5C800F0DAEC0CF0BF
:1034A00008C000F0020E046E000E00BEFF0E016E9A
:1034B000026E036E0450000107E0003600900136F2
:1034C00002360336FF0FF7D70001AA0E0026D00EF2
:1034D0000122000E022200C0F6FF01C0F7FF02C069
:1034E000F8FF0900F5CF00F00900F5CF01F0090061
:1034F000F5CF02F00900F5CF03F0D6C804F0D7C825
:1035000005F0D8C806F0D9C807F035EC0DF0120068
:10351000800E0A0A006E800E0801D519005C76E262
:103520000A0E046ED5C800F0DAEC0CF0090E002685
:10353000000E00BEFF0E016E000E0122020E046E90
:10354000000E01BEFF0E026E036E0450000107E084
:1035500000360090013602360336FF0FF7D7000120
:10356000AA0E0026D00E0122000E022200C0F6FF95
:1035700001C0F7FF02C0F8FF0900F5CFD6F8090037
:10358000F5CFD7F80900F5CFD8F80900F5CFD9F86D
:103590000A0E046ED5C800F0DAEC0CF008C000F09A
:1035A000020E046E000E00BEFF0E016E026E036E70
:1035B0000450000107E00036009001360236033661
:1035C000FF0FF7D70001AA0E0026D00E0122000E31
:1035D000022200C0F6FF01C0F7FF02C0F8FF090099
:1035E000F5CF00F00900F5CF01F00900F5CF02F0AA
:1035F0000900F5CF03F0D6C804F0D7C805F0D8C845
:1036000006F0D9C807F035EC0DF012000001020EEB
:10361000046ED5C800F0000E0801D5BFFF0E016E84
:10362000026E036E0450080107E000360090013678
:1036300002360336FF0FF7D7AA0E0026D00E01225E
:10364000000E022200C0F6FF01C0F7FF02C0F8FF23
:103650000900F5CF00F00900F5CF01F00900F5CF22
:1036600002F00900F5CF03F012006E0E0801D55DDF
:10367000D8A0D0D0640E046ED5C800F05DEC06F082
:10368000120E0026016A000E0122020E046E000EC8
:1036900001BEFF0E026E036E0450000107E000360B
:1036A0000090013602360336FF0FF7D70001760E81
:1036B0000026D00E0122000E022200C0F6FF01C03B
:1036C000F7FF02C0F8FF0900F5CF00F00900F5CFC1
:1036D00001F00900F5CF02F00900F5CF03F0000E6C
:1036E000046E000E056E000E066E7E0E076E35EC43
:1036F0000DF000C0D6F801C0D7F802C0D8F803C05A
:10370000D9F8640E046ED5C800F05DEC06F008C070
:1037100000F00A0E046E5DEC06F0090E0026016A48
:10372000000E0122020E046E000E01BEFF0E026E9C
:10373000036E0450000107E00036009001360236A7
:103740000336FF0FF7D70001760E0026D00E0122B8
:10375000000E022200C0F6FF01C0F7FF02C0F8FF12
:103760000900F5CF00F00900F5CF01F00900F5CF11
:1037700002F00900F5CF03F0D6C804F0D7C805F071
:10378000D8C806F0D9C807F035EC0DF000C0D6F85F
:1037900001C0D7F802C0D8F803C0D9F80A0E046EE9
:1037A000D5C800F05DEC06F008C000F0020E046E13
:1037B000000E016E026E036E0450000107E0003639
:1037C0000090013602360336FF0FF7D70001760E60
:1037D0000026D00E0122000E022200C0F6FF01C01A
:1037E000F7FF02C0F8FF0900F5CF00F00900F5CFA0
:1037F00001F00900F5CF02F00900F5CF03F0D6C8BB
:1038000004F0D7C805F0D8C806F0D9C807F035ECE1
:103810000DF012000801D5510A08D8B083D00A0E65
:10382000046ED5C800F05DEC06F0090E0026016AB2
:10383000000E0122020E046E000E01BEFF0E026E8B
:10384000036E0450000107E0003600900136023696
:103850000336FF0FF7D70001760E0026D00E0122A7
:10386000000E022200C0F6FF01C0F7FF02C0F8FF01
:103870000900F5CF00F00900F5CF01F00900F5CF00
:1038800002F00900F5CF03F0000E046E000E056E85
:10389000000E066E7E0E076E35EC0DF000C0D6F8F9
:1038A00001C0D7F802C0D8F803C0D9F80A0E046ED8
:1038B000D5C800F05DEC06F008C000F0020E046E02
:1038C000000E016E026E036E0450000107E0003628
:1038D0000090013602360336FF0FF7D70001760E4F
:1038E0000026D00E0122000E022200C0F6FF01C009
:1038F000F7FF02C0F8FF0900F5CF00F00900F5CF8F
:1039000001F00900F5CF02F00900F5CF03F0D6C8A9
:1039100004F0D7C805F0D8C806F0D9C807F035ECD0
:103920000DF012000001020E046ED5C800F0000E6A
:10393000016E026E036E0450000107E00036009035
:10394000013602360336FF0FF7D7760E0026D00E6B
:103950000122000E022200C0F6FF01C0F7FF02C0E4
:10396000F8FF0900F5CF00F00900F5CF01F00900DC
:10397000F5CF02F00900F5CF03F0000E046E000E43
:10398000056E000E066E7E0E076E35EC0DF0120011
:10399000000100500402F4CF09F0F3CF08F0015009
:1039A0000502F4CF0BF0F3CF0AF000500502F350FC
:1039B0000926F4500A22E86A0B2201500402F3504F
:1039C0000926F4500A22E86A0B2205AEECEF1CF03F
:1039D00000500A5C01500B5801AEF3EF1CF004508C
:1039E0000A5C05500B5808C000F009C001F00AC07D
:1039F00002F00BC003F0120000010A6A0350D8A4C1
:103A00000A800750D8A40A820A50D8B460EF1DF08B
:103A1000030AD8B419EF1DF00AB014EF1DF006AE7A
:103A20005EEF1DF05CEF1DF002AE5CEF1DF05EEF8F
:103A30001DF00250800B0A6E029E0650800B069EFF
:103A40000A18D8B42AEF1DF00A50D8B45CEF1DF064
:103A50005EEF1DF00750035CD8B434EF1DF0D8A022
:103A600050EF1DF056EF1DF00650025CD8B43EEF4B
:103A70001DF0D8A050EF1DF056EF1DF00550015C71
:103A8000D8B448EF1DF0D8A050EF1DF056EF1DF050
:103A90000450005CD8B460EF1DF0D8B056EF1DF0B4
:103AA0000A52D8B45EEF1DF05CEF1DF00A52D8B494
:103AB0005CEF1DF05EEF1DF0D8801200D890120070
:103AC000D880D88412001200000103500718D8A42F
:103AD00079EF1DF002500618D8A479EF1DF00150BF
:103AE0000518D8A479EF1DF000500418D8B4D88474
:103AF0001200D894120012000001086A096A0750E7
:103B0000D8B413EF1EF00350D8B418EF1EF00250D3
:103B100006180A6E028E068E0E6A02C008F001C0F8
:103B20000CF000C00DF004500D5E0550D8A0053C0F
:103B30000C5E0650D8A0063C085E086A0C6A0D6A46
:103B4000D8A0AAEF1DF0D89002320132003208321C
:103B5000010E0E6E0750035ED8A0B7EF1DF07E0E6B
:103B60000E240326D8B01DEF1EF0BDEF1DF07E0E13
:103B70000E240326D8A022EF1EF0180E0B6E0D3671
:103B80000C3608360036013602360E360450005E1A
:103B90000550D8A0053C015E0650D8A0063C025E48
:103BA00006340E120EA0D8EF1DF00D80E3EF1DF0CD
:103BB000045000260550D8B0053C01260650D8B068
:103BC000062802260D900B2EBFEF1DF009EF1EF008
:103BD000D8900036013602360E360450005E05508D
:103BE000D8A0053C015E0650D8A0063C025E063413
:103BF0000E10010B0D26D8B00C2AD8B4082AD8A470
:103C000009EF1EF008320C320D32032AD8B41DEF32
:103C10001EF00AAE089E0850026E0C50016E0D5048
:103C2000006E25EF1EF0010EC9EC0DF025EF1EF021
:103C3000020E5FEC02F025EF1EF0040E52EC02F0D3
:103C400025EF1EF0080E3FEC02F0120000010B6A97
:103C50000C6A0A6A086A0350D8B4AFEF1EF0028EED
:103C60009E0E035E03BE3AEF1EF0D8B43AEF1EF08C
:103C70009FEF1EF0036C080E035CD8A06CEF1EF0E3
:103C8000036E083600C008F001C000F002C001F069
:103C9000026A080E035CD8A06CEF1EF0036E0836B3
:103CA00000C008F001C000F0016A080E035CD8A053
:103CB0006CEF1EF0036E083600C008F0006A080EB4
:103CC000035CD8A06CEF1EF0036E0836086A035040
:103CD000D8A4D89078EF1EF00350D8B478EF1EF037
:103CE000D8900232013200320832032E70EF1EF0FB
:103CF0000BBC08A089EF1EF0D8A089EF1EF0082A9F
:103D0000D8B4002AD8B4012AD8B4022A02BEB3EF2C
:103D10001EF00AAEAFEF1EF0021E011E001E081EAE
:103D2000082AD8B4002AD8B4012AD8B4022AAFEF9E
:103D30001EF0026A016A006A086AAFEF1EF00B808B
:103D40000BAEB9EF1EF0026A0AAEB9EF1EF0026EBA
:103D5000016E006E086E0A360232B9EF1EF0000ED8
:103D60000C6ABAEF1EF0010E0C6ECEEC0DF0BAEF3D
:103D70001EF0FF0E0250036E0150026E0050016EE5
:103D80000850006E120000010050086E0150006ED5
:103D90000250016E0350026E036A0B6A0C6A9E0E9B
:103DA000036E0A6A020E0C6ED4EC06F012000001DB
:103DB000067EDDEC0DF0120000010B6A0C6A086A49
:103DC0000350D8B461EF1FF002C00AF0028E9E0EBD
:103DD000035E03AE51EF1FF0036C080E035CD8A026
:103DE0001EEF1FF0036E083600C008F001C000F09F
:103DF00002C001F0026A080E035CD8A01EEF1FF09B
:103E0000036E083600C008F001C000F0016A080E19
:103E1000035CD8A01EEF1FF0036E083600C008F048
:103E2000006A080E035CD8A01EEF1FF0036E083670
:103E3000086A0350D8A4D8902AEF1FF00350D8B4D2
:103E40002AEF1FF0D8900232013200320832032EDE
:103E500022EF1FF00BBC08A03BEF1FF0D8A03BEFF8
:103E60001FF0082AD8B4002AD8B4012AD8B4022AEC
:103E700002BE65EF1FF00AAE61EF1FF0021E011EC9
:103E8000001E081E082AD8B4002AD8B4012AD8B4C3
:103E9000022A61EF1FF0026A016A006A086A61EF94
:103EA0001FF00B800BAE6CEF1FF0026A0AAE6CEFD6
:103EB0001FF0026E016E006E086E0A3602326CEF61
:103EC0001FF00C6A000E6DEF1FF0010E0C6E000E5D
:103ED000CEEC0DF06DEF1FF0FF0E0250036E01509F
:103EE000026E0050016E0850006E1200D5C8EBF84B
:103EF0006C0E0801EC6F020EED6F9FEC0CF00201EE
:103F00006C51200A02E1300E6C6F02016D51200AE3
:103F100002E1300E6D6F02016F6B12008C9E120079
:103F2000959E1200958E1200026A83BE022A0250EC
:103F3000000A03E1006A016A1200026A83BE022AD3
:103F40000250000A05E0010E006E000E016E120024
:103F50001200AFC800F00801AF0700520FE0ACC874
:103F6000F6FFADC8F7FFAEC8F8FF0900F5CF61FF57
:103F7000010EAC27000EAD23AE23EBD71200AF0E1F
:103F80000801D56F190ED66FACC8D7F8ADC8D8F8F0
:103F9000060ED96FF1EC0FF0700E0801D56F020E0E
:103FA000D66F060ED76F0AEC10F0000E0801D56F21
:103FB000080ED66F1AEC10F01C0E0801B425B76F6E
:103FC000000EB521B86F000ED56F450ED66F1AECF6
:103FD00010F0B7C8D5F8B8C8D6F81AEC10F0CDC5AF
:103FE000D5F8CEC5D6F81AEC10F00501CD4BCE2B86
:103FF0000801D56BD66B1AEC10F0110E0801D56FC5
:10400000800ED66F1AEC10F00801D56BD66B1AEC47
:1040100010F0760E0801D56F020ED66F040ED76F22
:104020000AEC10F0AEC8D5F8AFC8D6F8040E0801F7
:10403000D76F0AEC10F0080E0801B425B76F000E18
:10404000B521B86FB0C8D5F8B1C8D6F81AEC10F0E1
:10405000B2C8D5F8B3C8D6F81AEC10F0B7C8D5F87E
:10406000B8C8D6F81AEC10F00801D56BD66B1AEC6C
:1040700010F0BD0E0801D56F190ED66F140ED76F54
:10408000000ED86F21EC10F0F60E0801EB6F0E0E4B
:10409000EC6FCAEC07F000C0B9F8F70E0801EB6F3F
:1040A0000E0EEC6FCAEC07F000C0D7F8C70E08017F
:1040B000D56F190ED66FB9C8D8F84DEC10F0010EB7
:1040C0000801B715B66FD90EB425EB6F190EB521DF
:1040D000EC6FED6BD1EC07F0C90E0801D56F190E2E
:1040E000D66FD10ED76F190ED86FD90EB425D96FF0
:1040F000190EB521DA6FB651D927D8B0DA2BDB6BA0
:104100005AEC10F0D90E0801B425D56F190EB5215F
:10411000D66FB651D527D8B0D62B080ED527000EAE
:10412000D623D76B110ED86F4DEC10F0B8C8EBF852
:10413000DFEC07F0B7C8EBF8DFEC07F0D10E0801B1
:10414000D56F190ED66F0C0EB725D76F000EB8219C
:10415000D86FB651D727D8B0D82B21EC10F0F60E77
:104160000801EB6F0E0EEC6FCAEC07F000C0B9F857
:10417000F70E0801EB6F0E0EEC6FCAEC07F000C0F3
:10418000D7F8D70E0801D56F190ED66FB9C8D8F871
:104190004DEC10F02A0E0801B425D56F000EB521A4
:1041A000D66FEEEC10F0120061CF00F012000801A3
:1041B000AF51FF0A02E1FF0EAE190BE07A0E0801C3
:1041C000F86F0F0EF96FAEC8FAF8AFC8FBF867ECDE
:1041D00002F0B0C800F00801B007005209E0ACC816
:1041E000E1FFADC8E2FF61CFE6FFAC4BAD2BF1D7ED
:1041F0001200AEC8B4F8AFC8B5F8ACC8B2F8ADC8D4
:10420000B3F8B0C800F0B1C801F0010E0801B05F0A
:10421000000EB15B0050011011E0B4C8E9FFB5C851
:10422000EAFFEECF00F0B2C8E1FFB3C8E2FF00C082
:10423000E6FFB24BB32BB44BB52BE3D7ACC800F0C1
:10424000ADC801F01200B0C802F0B1C803F0010E11
:104250000801B05F000EB15B000E031802E1000E12
:10426000021828E0ACC8E9FFADC8EAFFEECF04F0C1
:10427000AEC8E9FFAFC8EAFFEECF02F00450021863
:1042800013E0ACC8E9FFADC8EAFFEECF02F0AEC85C
:10429000E9FFAFC8EAFFEECF00F00050025C006E0D
:1042A000016A000E015A12000801AC4BAD2BAE4B57
:1042B000AF2BC9D7006A016A12004C0E0801B46F17
:1042C0004F0EB56F470EB66F5F0EB76F5F0EB86FCC
:1042D000300EB96F300EBA6F310EBB6F2E0EBC6F41
:1042E000540EBD6F580EBE6F540EBF6FC06B200EC4
:1042F000C16F200EC26F200EC36F300EC46F300E20
:10430000C56F310EC66FC76B25EC11F0030E6B1530
:10431000006E02E07A6B03D0010E02017A6F7AC25E
:1043200000F0000E016E026E036E180E046E000E99
:10433000056E066E076E2EEC01F0DE0E00240801FD
:10434000C96FD00E0120CA6F000E0220CB6F000E85
:1043500002016A05006E016A000E015A010E046E28
:10436000000E01BEFF0E026E036E0450020107E054
:1043700000360090013602360336FF0FF7D70801EA
:10438000C9510026CA510122CB51022200C0F6FFBA
:1043900001C0F7FF02C0F8FF0900F5CF00F00900E7
:1043A000F5CF01F0020169510024046E000E0120D6
:1043B000056E04C0ACF805C0ADF87C51051802E1EB
:1043C00004507B19D8B4C0D002017D6BACC87BF21D
:1043D000ADC87CF27A5330E17C51010A02E16D0EE6
:1043E0007B192AE1330E0801B96F360EBA6F360E0B
:1043F000BB6F870ED56F0F0ED66F840ED76F0F0E63
:10440000D86FFCEC11F000C0AFF80050000A02E0D9
:10441000006A1200B40E0801D56F080ED66FA00E08
:10442000D76F44EC14F000C0AFF80050010A02E06E
:10443000006A12002CEC16F07BC2D5F87CC2D6F8CC
:10444000C10E0801D76F080ED86F83EC16F0080173
:10445000C451200A02E1300EC46F0801C551200A80
:1044600002E1300EC56FC4C8B9F8C5C8BAF8C6C8ED
:10447000BBF8870E0801D56F0F0ED66F840ED76F6D
:104480000F0ED86FFCEC11F000C0AFF80050000A1E
:1044900002E0006A1200B40E0801D56F080ED66F54
:1044A000A00ED76F44EC14F000C0AFF80050010A22
:1044B00002E0006A1200B00E0801D56F080ED66F38
:1044C000E7EC16F0000E006E0801B31908E1005089
:1044D000B21905E10050B11902E1B051000A03E13F
:1044E000010E006E1200010E0801AE6F1A0E0801D7
:1044F000AE5D1FE2C80ED56F080ED66F09EC17F03F
:104500000801AE51180A09E1300EC85D006E0A0EAE
:104510000002F3CF00F000C0AFF80801AE51190A55
:1045200005E1300EC85D006E0050AF270801AE2BCC
:10453000DDD70801AF5102016B1903E1020E006ED5
:104540001200030E006E12000201ACC87BF2ADC86F
:104550007CF2020E006E12002E0E0801AC6FAD6BE5
:104560002E0EAE6FAF6B2E0EB06FB16B200EB26F12
:10457000B36B25EC11F07E6B8FC2D5F8930E08015A
:10458000D66F020ED76F4DEC17F07E0E0801D56F77
:10459000020ED66F930ED76F020ED86F030ED96F2F
:1045A000000EDA6F79EC17F07E0E0801D56F020E5F
:1045B000D66FAC0ED76F080ED86F010ED96F000EF4
:1045C000DA6F79EC17F090C2D5F8930E0801D66F28
:1045D000020ED76F4DEC17F07E0E0801D56F020E5C
:1045E000D66F930ED76F020ED86F030ED96F000EE1
:1045F000DA6F79EC17F07E0E0801D56F020ED66FD8
:10460000AE0ED76F080ED86F010ED96F000EDA6F9D
:1046100079EC17F091C2D5F8930E0801D66F020E0F
:10462000D76F4DEC17F07E0E0801D56F020ED66FD6
:10463000930ED76F020ED86F030ED96F000EDA6F8C
:1046400079EC17F07E0E0801D56F020ED66FB00E12
:10465000D76F080ED86F010ED96F000EDA6F79ECA4
:1046600017F092C2D5F8930E0801D66F020ED76FDD
:104670004DEC17F07E0E0801D56F020ED66F930E2B
:10468000D76F020ED86F030ED96F000EDA6F79EC78
:1046900017F07E0E0801D56F020ED66FB20ED76FDF
:1046A000080ED86F010ED96F000EDA6F79EC17F093
:1046B0000201BB6B69C2D5F8930E0801D66F020EDA
:1046C000D76F4DEC17F0BB0E0801D56F020ED66FF9
:1046D000930ED76F020ED86F030ED96F000EDA6FEC
:1046E00079EC17F0200E0201BB6F6AC2D5F8930E69
:1046F0000801D66F020ED76F4DEC17F0BB0E080104
:10470000D56F020ED66F930ED76F020ED86F030EC1
:10471000D96F000EDA6F79EC17F02F0E0201BE6F21
:104720006BC2D5F8930E0801D66F020ED76F4DEC11
:1047300017F0BB0E0801D56F020ED66F930ED76F20
:10474000020ED86F030ED96F000EDA6F79EC17F0F6
:104750002F0E0201C16FC56B68C2D5F8930E080118
:10476000D66F020ED76F4DEC17F0C50E0801D56F4E
:10477000020ED66F930ED76F020ED86F030ED96F4D
:10478000000EDA6F79EC17F0200E0201C56F67C2D8
:10479000D5F8930E0801D66F020ED76F4DEC17F0C7
:1047A000C50E0801D56F020ED66F930ED76F020E9D
:1047B000D86F030ED96F000EDA6F79EC17F03A0E4E
:1047C0000201C86F66C2D5F8930E0801D66F020EBB
:1047D000D76F4DEC17F0C50E0801D56F020ED66FDE
:1047E000930ED76F020ED86F030ED96F000EDA6FDB
:1047F00079EC17F03A0E0201CB6F120026502A24F2
:104800000901016F27502B20026F000E2C20036F2F
:10481000000E2D20046F2E0E056F000E066F5CEC4F
:1048200001F02E0E2824E96E000E2920EA6EEECF4C
:10483000ACF8000E0801AD6FAE6FAF6F000EAD6F3C
:10484000AE6FAF6FEECFADF8000E006E0801AF197E
:1048500008E10050AE1905E1FF0EAD1902E1AC51BF
:10486000FF0A71E0ACC8B4F8ADC8B5F8AEC8B6F888
:10487000AFC8B7F80801B437B491B537B637B73712
:10488000B4C8ACF8B5C8ADF8B6C8AEF8B7C8AFF89C
:104890002EC204F02FC205F0000E066E076EB4C8DB
:1048A00000F0B5C801F0B6C802F0B7C803F0CEEC0E
:1048B00003F000C0B0F801C0B1F802C0B2F803C004
:1048C000B3F8B0C826F0B1C827F02EC204F02FC24A
:1048D00005F0000E066E076EB4C800F0B5C801F012
:1048E000B6C802F0B7C803F0CEEC03F008C000F081
:1048F00009C001F00AC002F00BC003F000C028F0AC
:1049000001C029F00801B0512A240901016F0801F2
:10491000B1512B200901026F000E2C20036F000EF5
:104920002D20046F2E0E056F000E066F5CEC01F05B
:104930002E0E2824E96E000E2920EA6EEECFACF888
:10494000EECFADF881D7FEEC05F017EC06F03CC2D7
:1049500000F0000E016E026E036E2EC204F02FC234
:1049600005F0000E066E076EDAEC01F000C004F0F0
:1049700001C005F002C006F003C007F04DC200F010
:104980004EC201F04FC202F050C203F0CEEC03F071
:1049900008C000F009C001F00AC002F00BC003F02B
:1049A0002EC204F02FC205F0000E066E076ECEEC8C
:1049B00003F000C05BF2005002013827000E3923DB
:1049C0003A233B232EC204F02FC205F0000E066EE0
:1049D000076E4DC200F04EC201F04FC202F050C24D
:1049E00003F0CEEC03F008C000F009C001F00AC0EB
:1049F00002F00BC003F000C049F201C04AF202C04D
:104A00004BF203C04CF2120038C201F939C202F96C
:104A10003AC203F93BC204F92E0E0901056F000EDC
:104A2000066F5CEC01F00801B06BB16B0801AF518F
:104A3000B15D02E1AE51B05D5AE22E0E0201492590
:104A4000E16E000E4A21E26E0801B051AC25E96E1C
:104A5000B151AD21EA6EEECF00F000C0E6FF010ECD
:104A600002014927000E4A234B234C23000E006EFF
:104A70004C1908E100504B1905E12F514A1902E188
:104A800049512E1930E138C201F939C202F93AC24E
:104A900003F93BC204F92E0E0901056F000E066FE3
:104AA00089EC01F0010E02013827000E39233A2368
:104AB0003B23496B4A6B4B6B4C6B5B2B5B513C193B
:104AC00003E15B6BC1EC17F038C201F939C202F99E
:104AD0003AC203F93BC204F92E0E0901056F000E1C
:104AE000066F5CEC01F00801B04BB12B9FD738C2C8
:104AF00001F939C202F93AC203F93BC204F92E0E98
:104B00000901056F000E066F89EC01F00801B05134
:104B100002014D270801B15102014E23000E4F231F
:104B20005023455141250901016F0201465142219F
:104B30000901026F000E020143210901036F000EFB
:104B4000020144210901046F2E0E056F000E066F4D
:104B50005CEC01F00E0E02014725006E000E4821AC
:104B6000016E2E0E0024E16E000E0120E26E64C282
:104B7000E6FF65C2E6FF62C2E6FF63C2E6FF62C20D
:104B8000E6FF63C2E6FFE66AE66A64C2E6FF65C264
:104B9000E6FF62C2E6FF63C2E6FF1C0E4725006E19
:104BA000000E4821016E2E0E0024E16E000E012041
:104BB000E26E4DC2E6FF4EC2E6FF4FC2E6FF50C2B4
:104BC000E6FF455141250901016F0201465142218D
:104BD0000901026F000E020143210901036F000E5B
:104BE000020144210901046F2E0E056F000E066FAD
:104BF00089EC01F012000801AF6BB06BACC8E9FFA3
:104C0000ADC8EAFF0801AC4BAD2BEECF00F000C001
:104C1000AEF8005205E0AEC861FFAF4BB02BEED747
:104C2000AFC800F0B0C801F01200280E0801B36F41
:104C30006E0EB46F750EB56F6C0EB66F6C0EB76FEF
:104C4000290EB86FB96BC16BC26BBF6BC06BAEC8BE
:104C500000F0AFC801F0B0C802F0010E0801AE27A5
:104C6000000EAF23B02300C0F6FF01C0F7FF02C063
:104C7000F8FF0900F5CF00F000C0BCF80052D8B42E
:104C80008FEF37F0BC51250A0BE0ACC8E1FFADC88F
:104C9000E2FFBCC8E6FFAC4BAD2BC14BC22BD7D754
:104CA0000801BD6BBE6BBF6BC06B080128D008014B
:104CB000BF87010EAE27000EAF23B0235ED00801E0
:104CC000BF81010EAE27000EAF23B02356D00801DE
:104CD000BF83010EAE27000EAF23B0234ED00801D4
:104CE000C087010EAE27000EAF23B02346D00801C7
:104CF000BF85010EAE27000EAF23B0233ED0AEC855
:104D0000F6FFAFC8F7FFB0C8F8FF0900F5CFCDF840
:104D10000801CD512D0ACBE0AEC8F6FFAFC8F7FFB2
:104D2000B0C8F8FF0900F5CFCDF8CD51200AC7E093
:104D3000AEC8F6FFAFC8F7FFB0C8F8FF0900F5CF5F
:104D4000CDF8CD512B0AC3E0AEC8F6FFAFC8F7FFD0
:104D5000B0C8F8FF0900F5CFCDF8CD51230ABFE068
:104D6000AEC8F6FFAFC8F7FFB0C8F8FF0900F5CF2F
:104D7000CDF8CD51300ABBE001D097D70801BFB3C1
:104D8000BF910801BFB7BF95AEC8F6FFAFC8F7FF28
:104D9000B0C8F8FF0900F5CF00F0000E016E00C0AA
:104DA000D5F822EC18F0005238E00801BD6BBE6B5C
:104DB000BDC800F0BEC801F00A0E046E000E056EFC
:104DC000C8EC1CF0AEC8F6FFAFC8F7FFB0C8F8FFDC
:104DD0000900F5CFCDF80801CD510024BD6F000EBC
:104DE0000120BE6F300EBD5F000EBE5B010EAE2710
:104DF000000EAF23B023AEC8F6FFAFC8F7FFB0C8B0
:104E0000F8FF0900F5CF00F0000E016E00C0D5F8E4
:104E100022EC18F00052CCE136D0AEC8F6FFAFC895
:104E2000F7FFB0C8F8FF0900F5CFCDF80801CD5164
:104E30002A0A29E1B1C8E9FFB2C8EAFFEECF00F0C3
:104E4000EECF01F000C0E9FF01C0EAFFEECFBDF8F0
:104E5000EECFBEF8B1C8E9FFB2C8EAFFEECF00F06E
:104E6000EECF01F0020E0026000E0122B1C8E1FFD4
:104E7000B2C8E2FF00C0E6FF01C0E6FF010EAE27A8
:104E8000000EAF23B023AEC8F6FFAFC8F7FFB0C81F
:104E9000F8FF0900F5CFCDF80801CD512E0A75E1D4
:104EA000010EAE27000EAF23B023AEC8F6FFAFC889
:104EB000F7FFB0C8F8FF0900F5CFCDF8CD512A0AA9
:104EC0002AE1B1C8E9FFB2C8EAFFEECF00F0EECFA9
:104ED00001F000C0E9FF01C0EAFFEECFBAF8EECF63
:104EE000BBF8B1C8E9FFB2C8EAFFEECF00F0EECFE1
:104EF00001F0020E0026000E0122B1C8E1FFB2C887
:104F0000E2FF00C0E6FF01C0E6FF010EAE27000E83
:104F1000AF23B02338D00801BA6BBB6BAEC8F6FF25
:104F2000AFC8F7FFB0C8F8FF0900F5CF00F0000EDA
:104F3000016E00C0D5F822EC18F0005224E0BAC887
:104F400000F0BBC801F00A0E046E000E056EC8EC3E
:104F50001CF0AEC8F6FFAFC8F7FFB0C8F8FF0900F5
:104F6000F5CFCDF80801CD510024BA6F000E012015
:104F7000BB6F300EBA5F000EBB5B010EAE27000E9A
:104F8000AF23B023CBD7080104D00801BA6BBB6BA9
:104F9000C0890801AEC800F0AFC801F0B0C802F087
:104FA000010E0801AE27000EAF23B02300C0F6FFAC
:104FB00001C0F7FF02C0F8FF0900F5CFBCF801D12E
:104FC000C1C800F0C2C801F012000801BF89E1D7D2
:104FD0000801C08532D10801BF8B0801C0812DD1E5
:104FE0000801C0832AD10801BF8D27D126D108012D
:104FF000BF8B0801BF8F21D1B1C8E9FFB2C8EAFF5A
:10500000EECF00F0EECF01F000C0E9FF01C0EAFFF3
:10501000EECFC9F8EECFCAF8B1C8E9FFB2C8EAFFCF
:10502000EECF00F0EECF01F0020E0026000E0122BE
:10503000B1C8E1FFB2C8E2FF00C0E6FF01C0E6FF71
:10504000000E0801CA1902E1000EC91905E1B30EEC
:105050000801C96F080ECA6F0801CB6BCC6B080141
:10506000CB51C925E96ECC51CA21EA6EEECF00F0D2
:10507000005203E0CB4BCC2BF2D70801BA51BB1145
:105080000AE0CC51BB5D02E1CB51BA5D04E2BAC883
:10509000CBF8BBC8CCF80801BE51CC5D02E1BD51D4
:1050A000CB5D06E20801CB51BD5FCC51BE5B03D0A6
:1050B0000801BD6BBE6B0801BFB717D0BDC800F0BB
:1050C000BEC801F0010E0801BD5F000EBE5B0050BE
:1050D00001100BE0ACC8E1FFADC8E2FF200EE66EA8
:1050E000AC4BAD2BC14BC22BE9D7CBC800F0CCC821
:1050F00001F0010E0801CB5F000ECC5B00500110E7
:1051000013E0C9C8E9FFCAC8EAFFEECF00F0ACC897
:10511000E1FFADC8E2FF00C0E6FFAC4BAD2BC94BD1
:10512000CA2BC14BC22BE1D70801BFA717D0BDC8FE
:1051300000F0BEC801F0010E0801BD5F000EBE5BAD
:10514000005001100BE0ACC8E1FFADC8E2FF200E3B
:10515000E66EAC4BAD2BC14BC22BE9D778D5B1C8AD
:10516000E9FFB2C8EAFFEECF00F0EECF01F000C0D9
:10517000E9FF01C0EAFFEECFBCF8B1C8E9FFB2C851
:10518000EAFFEECF00F0EECF01F0020E0026000E97
:105190000122B1C8E1FFB2C8E2FF00C0E6FF01C0D2
:1051A000E6FFBC0E0801C96F080ECA6F010ECB6F77
:1051B000000ECC6F62D7C00E0801BF13000EC013E3
:1051C0003CD00801BC51000AD8B4FAD6BC516C0AD4
:1051D000D8B4FBD6BC51660AD8B4FAD6BC51450A3D
:1051E000D8B4F9D6BC51650AD8B4F7D6BC51670A11
:1051F000D8B4F6D6BC516F0AD8B4F5D6BC51640AFF
:10520000D8B4F4D6BC51690AD8B4F0D6BC51700AEF
:10521000D8B4EDD6BC51580AD8B4E9D6BC51780AF6
:10522000D8B4E7D6BC51730AD8B4E6D6BC51630AE9
:1052300096E0BC51750ABFE0B4D7000E0801BF1557
:10524000006EC051070B016E00500110D8B4C3EFBF
:1052500032F0C0A904D0060EBA6F000EBB6FB1C801
:10526000E9FFB2C8EAFFEECF00F0EECF01F000C0D8
:10527000E9FF01C0EAFFEECFC3F8EECFC4F8EECFEE
:10528000C5F8EECFC6F8B1C8E9FFB2C8EAFFEECF65
:1052900000F0EECF01F0040E0026000E0122B1C88E
:1052A000E1FFB2C8E2FF00C0E6FF01C0E6FF046A0A
:1052B000056A066A076AC3C800F0C4C801F0C5C819
:1052C00002F0C6C803F0FCEC1CF0010ED8B0000ED2
:1052D000006E005206E00801C57F030EBF13000EEA
:1052E000C0130801C76BC86BC3C800F0C4C801F085
:1052F000C5C802F0C6C803F0046A056A066A076AF0
:1053000064EC1DF0000ED8A4010E006E0052D8B45B
:105310009AD0C6C800F0016A026A036AFF0E001440
:105320000801D16F000ED26F000ED2177E0ECD6F26
:10533000000ECE6FCF6FD06FCD51D15D006ECE51CC
:10534000D259016E00C0C7F801C0C8F8010E005C58
:10535000C76F000E0158C86FC7C800F0C8C801F079
:10536000030E046E000E056EC8EC1CF000C0C7F8FA
:1053700001C0C8F80A0E046E000E056E6FEC06F050
:1053800000C0C7F801C0C8F8800E01180801CD6F31
:10539000800ECD5D02E1000E005C04E2010EC75FED
:1053A000000EC85B0801C7510008D56F2FEC18F03C
:1053B000C3C804F0C4C805F0C5C806F0C6C807F0E5
:1053C00035EC0DF000C0C9F801C0CAF802C0CBF836
:1053D00003C0CCF8000E046E000E056E000E066EC3
:1053E0007F0E076EC9C800F0CAC801F0CBC802F032
:1053F000CCC803F0FCEC1CF0010ED8B0000E006E1F
:10540000005206E0010E0801C75F000EC85B1BD00A
:10541000000E046E000E056E200E066E820E076EE4
:10542000C9C800F0CAC801F0CBC802F0CCC803F06C
:10543000FCEC1CF0000ED8B0010E006E005203E030
:105440000801C74BC82B0801800E006E800E0801B2
:10545000C819005C02E1C751000804E3010E08010D
:10546000BC6F03D00801C7C8BCF80801C0B11BD08D
:10547000C0A316D0800EC819006E7F0E005C02E13A
:10548000FC0EC75D0BE3800E0801C819006E800E8C
:10549000BB19005C02E1BA51C75D02E3080103D009
:1054A0000801ACEF2EF00801BA51BB1107E0C0A310
:1054B00005D0010E0801BA5F000EBB5B000E006E46
:1054C0000801BB51005C02E1BA51080804E2080E71
:1054D0000801BC6F03D00801BAC8BCF8C3C800F00B
:1054E000C4C801F0C5C802F0C6C803F0046A056A62
:1054F000066A076A64EC1DF0000ED8A4010E006E67
:105500000052D8B464D1C7C8D5F82FEC18F000C049
:1055100004F001C005F002C006F003C007F0C3C8E4
:1055200000F0C4C801F0C5C802F0C6C803F07CECA6
:105530001DF000C0C3F801C0C4F802C0C5F803C024
:10554000C6F80801BC510008D56F2FEC18F000C058
:1055500004F001C005F002C006F003C007F0C3C8A4
:1055600000F0C4C801F0C5C802F0C6C803F07CEC66
:105570001DF000C0CDF801C0CEF802C0CFF803C0C6
:10558000D0F8CDC8C3F8CEC8C4F8CFC8C5F8D0C8C5
:10559000C6F8CDC800F0CEC801F0CFC802F0D0C820
:1055A00003F026EC1EF0C3EC1EF000C004F001C0B6
:1055B00005F002C006F003C007F0CDC800F0CEC869
:1055C00001F0CFC802F0D0C803F0D7EC1EF0000EF7
:1055D000046E000E056E000E066E7E0E076EFCEC6D
:1055E0001CF0000ED8B0010E006E00521AE0C3C8C5
:1055F00000F0C4C801F0C5C802F0C6C803F0000E30
:10560000046E000E056E000E066E7E0E076EDDEC5B
:105610000DF000C0C3F801C0C4F802C0C5F803C053
:10562000C6F8C3C800F0C4C801F0C5C802F0C6C8B7
:1056300003F026EC1EF000C0D1F801C0D2F802C081
:10564000D3F803C0D4F80801BC51010F006E016A01
:10565000000E0122020E046E000E01BEFF0E026E4D
:10566000036E0450080107E0003600900136023650
:105670000336FF0FF7D708010E0E0026D10E0122C8
:10568000000E022200C0F6FF01C0F7FF02C0F8FFC3
:105690000900F5CFCDF80900F5CFCEF80900F5CF18
:1056A000CFF80900F5CFD0F8D051D45D08E1CF5143
:1056B000D35D05E1CE51D25D02E1CD51D15D1EE356
:1056C000C3C800F0C4C801F0C5C802F0C6C803F0E2
:1056D000CD0E046ECC0E056E4C0E066E7B0E076E64
:1056E00035EC0DF000C0C3F801C0C4F802C0C5F825
:1056F00003C0C6F80801C74BC82B69D00801C3C84E
:1057000000F0C4C801F0C5C802F0C6C803F026EC1A
:105710001EF000C0D1F801C0D2F802C0D3F803C017
:10572000D4F8020E046EBCC800F0000E016E026ECA
:10573000036E0450000107E0003600900136023687
:105740000336FF0FF7D70E0E0026D10E0122000EF2
:10575000022200C0F6FF01C0F7FF02C0F8FF0900F7
:10576000F5CFCDF80900F5CFCEF80900F5CFCFF889
:105770000900F5CFD0F80801D051D45D08E1CF5130
:10578000D35D05E1CE51D25D02E1CD51D15D1FE285
:10579000C3C800F0C4C801F0C5C802F0C6C803F011
:1057A000000E046E000E056E200E066E820E076E51
:1057B00035EC0DF000C0C3F801C0C4F802C0C5F854
:1057C00003C0C6F8010E0801C75F000EC85B0801E0
:1057D0000801C0A39BD0C0B799D0800E000A006E0C
:1057E000800E0801BB19005C02E1BA510A0805E20B
:1057F0000A0E0801BA6F000EBB6F0801C3C800F0A3
:10580000C4C801F0C5C802F0C6C803F026EC1EF0FB
:1058100000C0C9F801C0CAF802C0CBF803C0CCF878
:105820000801C951CA11CB11CC1144E00A0E046E13
:10583000000E056E066E076EC9C800F0CAC801F0FA
:10584000CBC802F0CCC803F0CEEC03F008C000F0E7
:1058500009C001F00AC002F00BC003F0000E0801FD
:10586000CD6F031808E1CD51021805E1CD510118A3
:1058700002E10050000A1EE1010E0801BA5F000EAD
:10588000BB5B0A0E046E000E056E066E076EC9C87D
:1058900000F0CAC801F0CBC802F0CCC803F0CEECCF
:1058A00003F000C0C9F801C0CAF802C0CBF803C0B9
:1058B000CCF8B6D7800E0801BB19006E800E005CD4
:1058C00002E1BC51BA5D22E20801BA51BC5DD56F5C
:1058D0002FEC18F000C004F001C005F002C006F083
:1058E00003C007F0C3C800F0C4C801F0C5C802F087
:1058F000C6C803F07CEC1DF000C0C3F801C0C4F8BA
:1059000002C0C5F803C0C6F8BAC8BCF80001050E4D
:105910000801BA25006E000EBB21016E0050BD5F6C
:105920000150BE5BBA51BB1102E1C0A705D0010E08
:105930000801BD5F000EBE5B030E0801BF15006EBF
:10594000C0C801F0000E01160050011004E0010E65
:10595000BD5F000EBE5B0801BFA54ED0BFA31BD02C
:10596000010EBF15006EC0C801F0000E01160050F8
:10597000011003E02D0E006E02D02B0E006EACC89D
:10598000E1FFADC8E2FF00C0E6FF0801AC4BAD2B64
:10599000C14BC22B15D0010E0801BF15006EC0C847
:1059A00001F0000E0116005001100AE0ACC8E1FF42
:1059B000ADC8E2FF200EE66EAC4BAD2BC14BC22B47
:1059C000800E006E800E0801BE19005C02E1BD5120
:1059D000000810E2ACC8E1FFADC8E2FF300EE66E91
:1059E0000801AC4BAD2BC14BC22B010EBD5F000EAD
:1059F000BE5BE6D7080151D00801BFB71AD0800EB0
:105A0000006E800E0801BE19005C02E1BD51000865
:105A100010E2ACC8E1FFADC8E2FF200EE66E08015F
:105A2000AC4BAD2BC14BC22B010EBD5F000EBE5B5C
:105A3000E6D708010801BFA31BD0010EBF15006EF9
:105A4000C0C801F0000E01160050011003E02D0E39
:105A5000006E02D02B0E006EACC8E1FFADC8E2FFB5
:105A600000C0E6FF0801AC4BAD2BC14BC22B15D0DB
:105A7000010E0801BF15006EC0C801F0000E01162E
:105A8000005001100AE0ACC8E1FFADC8E2FF200EF3
:105A9000E66EAC4BAD2BC14BC22B0801C3C800F066
:105AA000C4C801F0C5C802F0C6C803F026EC1EF059
:105AB00000C0C9F801C0CAF802C0CBF803C0CCF8D6
:105AC000020E046EBCC800F0000E016E026E036E82
:105AD0000450000107E0003600900136023603361C
